S12340002006000000E000FF10CE4FFF8E43F9108E02006F80313F26FABD412386E0B7E064
S123402046BD41238601B7E04186EFB7E047BD41238E430DBD42BA8E4337BD42BABD42C12A
S12340408152274A814E27238150272E815710270088814D2710815127088E43F0BD42ABD1
S123406020D56E9FF800BD41B220CCBE40033001BF4003262A7C40022025BE400326087D73
S12340804002271B7A4002301FBF400320118E439EBD42ABBD4218293EF74002BF40038602
S12340A001B7E042B64004B7E043B64003B7E044B64002B7E0458620B7E047BD41238E4330
S12340C0F9108E0200BD4132B6E040A780313F26F4BD4123BD413A7E40378E439EBD42AB25
S12340E0BD4218293BF74002BF40038601B7E042B64004B7E043B64003B7E044B64002B74F
S1234100E0458630B7E047BD41238E43F9108E0200BD4132A680B7E040313F26F4BD41237F
S12341207E4037B6E047858026F9B6E047854027F239B6E047850827F9398E43B7BD42AB9C
S1234140B64002BD4280BE4003BD4278BD42AF108E000030A901FF1F10C30010C4F0340657
S12341601F20C4F01F01ACE4270517016E270332623934108E43E4170131AEE41700F917F4
S12341800163C610A68943F930011700F31701575A26F117014FAEE1C610A68943F93001F3
S12341A081202504817E2302862E17013C5A26EA20B48E43C9BD42AB17007429348C02000D
S12341C0242F1F128E43E41700E11F211700A9170115A6A943F91700A717010B1700602872
S12341E011810827DF811827DB815E2721810D261339A7A943F9A1A943F927081700E88693
S12342003F1700E5108C01FF27BA312120B6108C000027B0313F20AC327D8D232957A7E4A1
S12342208D1D2951A7618D17294BA7624F35948D2129421F018D08293C3410A76135908D44
S1234240112932484848481F898D0729283404ABE0398D6D8130251D81392203803039810F
S12342604125128146220380373981612507816622038057391A0239341035028D02350226
S12342803402444444448D043502840F8B3081392F028B0720533402C608A68068E4250231
S12342A0862D8D458D415A26F135828D02200B34108E43E98D0435908D2FA680810426F8EC
S12342C0397D400727068D04847F201D3410BE4005A684850127F7A60135903402A69F40A3
S12342E005850135828D0086203412BE4005A684850227FA3502A7013590BE40058603A753
S1234300848611A7846D0186FFB74007390A0D434F4D5041435420464C4153482053454382
S1234320544F5220524541442F5752495445205554494C495459040A0D2852292052454184
S12343404420534543544F520A0D28572920575249544520534543544F520A0D284E2920F5
S12343604E45585420534543544F520A0D285029205052455620534543544F520A0D284D79
S123438029204D4F4449465920534543544F520A0D28512920515549540A0D3A20045345EF
S12343A043544F52204E554D4245522028362048455829203A2004534543544F52204E551B
S12343C04D424552202D2024040D0A4D454D4F525920414444524553532028332048455888
S11C43E0293A2004202D200400000A0D0000000457686174203F0D0A049F
S9030000FC
