:1000000010C04DC027C026C025C024C090C022C04B
:1000100021C020C01FC01EC01DC0A0C01BC01AC070
:1000200019C011241FBECFEDCDBF10E0A0E6B0E097
:10003000ECE9F1E002C005900D92A036B107D9F7C6
:1000400010E0A0E6B0E001C01D92A836B107E1F7CC
:1000500036D0A2C0D5CF1FBC8AE08EBD84ED90E320
:100060009BBD8ABD619A08958CE886B987E081B905
:10007000089517B8369A08956AE070E079D0F89438
:1000800010926700109266007894F8948091660050
:1000900090916700789486179707B8F308951F9298
:1000A0000F920FB60F9211248F931BBE85B78F7DD1
:1000B00085BF8F910F900FBE0F901F90189580E312
:1000C0008BBB18BA80E78ABB83E087BB80E585BF1E
:1000D00082E080B9C9DFBFDF7894CBDFC0E3DFE027
:1000E00016E00F2EF2E6EF2EF0E0FF2EF02DCBBB48
:1000F00018BA16B81EBCD0B98BB780648BBF889570
:1001000010B9B2DFA8DFB5DF82E390E0B5DF86B3D8
:10011000C09A84E690E0B0DFF70180819181805140
:100120009742FAE489339F0710F3C098E0CF1F92FB
:100130000F920FB60F9211248F939F9380916600B8
:1001400090916700019690936700809366009F915D
:100150008F910F900FBE0F901F9018951F920F92C6
:100160000FB60F9211240F900FBE0F901F9018958D
:10017000AA1BBB1B51E107C0AA1FBB1FA617B707CD
:1001800010F0A61BB70B881F991F5A95A9F78095E9
:0C0190009095BC01CD010895F894FFCFBC
:00000001FF
